:020000040800F2
:10C00000483200201DC3000825C300084DE5000884
:10C0100029C300082BC300082DC30008000000003E
:10C020008F9E939B08999697FE00000031C20008EE
:10C0300031C30008C27A0108B9C2000809C3000868
:10C0400037C3000837C3000837C3000837C30008E8
:10C0500037C3000837C3000837C3000837C30008D8
:10C0600037C3000837C3000837C3000837C30008C8
:10C0700037C3000837C3000837C3000837C30008B8
:10C0800037C3000837C3000837C3000837C30008A8
:10C090005D17010837C3000837C3000837C300081D
:10C0A00037C3000837C3000837C3000837C3000888
:10C0B00037C3000837C3000837C3000837C3000878
:10C0C00037C3000837C3000837C3000837C3000868
:10C0D00037C3000837C30008B5F2000837C30008AB
:10C0E00037C3000837C3000837C3000800F002F860
:10C0F00000F05AF80AA090E8000C82448344AAF1A8
:10C100000107DA4501D100F04FF8AFF2090EBAE8A5
:10C110000F0013F0010F18BFFB1A43F0010318477B
:10C1200098CF0000B8CF00000A444FF0000C10F880
:10C13000013B13F0070408BF10F8014B1D1108BFA5
:10C1400010F8015B641E05D010F8016B641E01F845
:10C15000016BF9D113F0080F1EBF10F8014BAD1C95
:10C160000C1B09D16D1E58BF01F801CBFAD505E0B3
:10C1700014F8016B01F8016B6D1EF9D59142D6D30D
:10C18000704700000023002400250026103A28BF35
:10C1900078C1FBD8520728BF30C148BF0B60704739
:10C1A0001FB51FBD10B510BD00F0DBFA1146FFF73B
:10C1B000F7FF07F051F800F0F9FA03B4FFF7F2FFC8
:10C1C00003BC00F0FDFA000080F309887047EFF32C
:10C1D00009807047684680F3098804480078C007E2
:10C1E00014BF0220032080F31488704740840108A4
:10C1F000DFF818C0EFF305831B0618BF6047EFF3A5
:10C200001483DB0708BF604700DF704775410108F2
:10C21000DFF818C0EFF305831B0618BF6047EFF384
:10C220001483DB0708BF604700DF704781430108C4
:10C23000EFF30980816911F8021C39BB90E80F10F7
:10C24000E047EFF3098C194B93E80600914218D0B0
:10C2500059B10CB44FF0010381F821302CE9F00FF3
:10C26000C1F824C008F024FB0CBC1A60D2F824C02A
:10C27000BCE8F00F92F821308CF309881BB192F8DA
:10C280002000CCF800006FF0020E704710B5084A8D
:10C290001268914209D8074C54F8214090E80F10D9
:10C2A000A047EFF3098C8CE80F0010BD10040020AC
:10C2B000D0C70008D0C7000808F0E4F9114B93E894
:10C2C000060091421BD00CB44FF0000381F82130DE
:10C2D000EFF3098C2CE9F00FC1F824C008F0E8FA5C
:10C2E0000CBC1A60D2F824C0BCE8F00F8CF30988AB
:10C2F00092F821301BB192F82030CCF800306FF06A
:10C30000020E70471004002008F096FBD6E70000EC
:10C3100007F016FA08F090FBD0E7000009488047C4
:10C3200009480047FEE7FEE7FEE7FEE7FEE7FEE717
:10C33000FEE7FEE7FEE7FEE704480549054A064B2F
:10C3400070470000D9EE0008EDC00008482C00201E
:10C3500048320020482E0020482E00200048704718
:10C36000E42B0020B2F120030AD5C2F1200320FA09
:10C3700002F001FA03F321FA02F140EA03007047E8
:10C3800021FA03F04FF00001704740EA010310B5B5
:10C390009B070FD1042A0DD310C808C9121F9C4255
:10C3A000F8D020BA19BA884201D9012010BD4FF047
:10C3B000FF3010BD1AB1D30703D0521C07E0002094
:10C3C00010BD10F8013B11F8014B1B1B07D110F8F1
:10C3D000013B11F8014B1B1B01D1921EF1D11846F4
:10C3E00010BD10B5431C02E010F8011B71B18107AC
:10C3F000FAD14FF0013202C88C1A8C4314EAC211F0
:10C40000F9D0C01A0A0603D0C01E10BDC01A10BD54
:10C410000A0401D0801E10BD0902FCD0401E10BDD0
:10C4200040EA010370B59B072ED14FF00136042A74
:10C430002AD308C810C99D1B9D43121F15EAC615B3
:10C4400017D0D8B2E1B2401A50EA056110D198B2C3
:10C45000A1B2401A50EA05410AD123F07F4024F0EE
:10C460007F41401A50EA052102D1180EA0EB14605A
:10C4700070BDA342DBD018BA21BA884201D901208D
:10C4800070BD4FF0FF3070BD0AB9002070BD10F8CC
:10C49000013B11F8014B63B1A3420AD1521E08D0EF
:10C4A00010F8013B11F8014B1BB1A34201D1521E00
:10C4B000EDD1181B70BD421E12F8013F002BFBD1BD
:10C4C00011F8013B002B02F8013BF9D17047032A18
:10C4D00040F2308010F0030C00F0158011F8013BA1
:10C4E000BCF1020F624498BF11F801CB00F8013B88
:10C4F00038BF11F8013BA2F1040298BF00F801CB4C
:10C5000038BF00F8013B11F0030300F06780083AE0
:10C51000C0F0088051F8043B083A51F804CBA0E879
:10C520000810F5E7121D5CBF51F8043B40F8043BCE
:10C53000AFF30080D20724BF11F8013B11F801CB03
:10C5400048BF11F8012B24BF00F8013B00F801CBD4
:10C5500048BF00F8012B7047431A28BF9A427FF664
:10C56000B6AF032A1044114440F2268010F0030FA6
:10C570001EBF11F8013D521E00F8013D10F0030FDF
:10C580007FF4F6AF11F0030300F0C180083AC0F069
:10C590000B8051F8043D083A51F804CD40F8043DB1
:10C5A00040F804CDFFF7F3BF121D5CBF51F8043D06
:10C5B00040F8043DAFF30080D20724BF11F8013DDD
:10C5C00011F801CD48BF11F8012C24BF00F8013D3E
:10C5D00000F801CD48BF00F8012C704710B5203A93
:10C5E000C0F00B80B1E81850203AA0E81850B1E82C
:10C5F0001850A0E81850BFF4F5AF5FEA027C24BFE2
:10C60000B1E81850A0E8185044BF18C918C0BDE8D8
:10C6100010405FEA827C24BF51F8043B40F8043BA1
:10C6200008BF7047D20728BF31F8023B48BF11F856
:10C63000012B28BF20F8023B48BF00F8012B7047B0
:10C6400002F0FF0343EA032242EA024200F002B88A
:10C650004FF000020429C0F0128010F0030C00F02B
:10C660001B80CCF1040CBCF1020F18BF00F8012BA9
:10C67000A8BF20F8022BA1EB0C0100F00DB85FEA77
:10C68000C17C24BF00F8012B00F8012B48BF00F843
:10C69000012B70474FF0000200B5134694469646B2
:10C6A000203922BFA0E80C50A0E80C50B1F12001C5
:10C6B000BFF4F7AF090728BFA0E80C5048BF0CC073
:10C6C0005DF804EB890028BF40F8042B08BF7047D1
:10C6D00048BF20F8022B11F0804F18BF00F8012B43
:10C6E0007047704770477047431A28BF9A427FF6D9
:10C6F00075AF104410F0030F11441EBF11F8013D37
:10C70000521E00F8013D10F0030F7FF4F6AF103A0F
:10C71000C0F00A8010B531E91850103A20E91850DD
:10C72000BFF4F9AFBDE81040530724BF31E908104A
:10C7300020E9081044BF51F8043D40F8043D12F0D0
:10C74000030F08BF7047D20728BF31F8023D48BF2A
:10C7500011F8012C28BF20F8023D48BF00F8012C39
:10C7600070477546FFF7FAFDAE4605006946534629
:10C7700020F00700854618B020B5FFF7DDFDBDE8C5
:10C7800020404FF000064FF000074FF000084FF038
:10C79000000B21F00701AC46ACE8C009ACE8C009C9
:10C7A000ACE8C009ACE8C0098D46704710B5044636
:10C7B000AFF300802046BDE81040FFF7FEBC00004C
:10C7C00001491820ABBEFEE72600020070470000BA
:10C7D000000000002DE9F04102787F2A03D0BDE877
:10C7E000F04100F059B801F8012B10F8015F01F891
:10C7F000015B461C0C464FF0021708E0214630460C
:10C8000000F04AF8074406EB104680B204446D1E5F
:10C81000F4D23846BDE8F08170B5024600200346E8
:10C82000062A16D006DC052A13D2DFE802F012121F
:10C83000121B1F004024FD2A0BD00BDCF02A24D051
:10C84000F12A06D10C70422048700F208870CB70FE
:10C85000042070BDFE2A1AD0FF2AFAD10C704B704A
:10C86000022070BD0D4606F099FB02E00D4606F071
:10C870009DFB0646FFF7B5FD401CC4B2224631467B
:10C880002846FFF724FE204670BD312000E004203A
:10C890000870012070BD00002DE9F84F0278A2F168
:10C8A00080031F2B03D800F03FF9BDE8F88FA2F1F9
:10C8B000A0035E2B02D800F0C9F9F6E701F8012BBE
:10C8C000934F0C4610F801CB0026DFF844B2FF214D
:10C8D000904B914A103FDFF844A24FF001094FF00E
:10C8E0000115BCF11E0F74D2DFE80CF00F172951AF
:10C8F000B9C2DC73F964747373737373787C80905A
:10C900009DB4B7737373737373990078611CFFF7E9
:10C9100083FF207000F10210C7E7027822B1012ADC
:10C9200055D021701846DFE04078C1074FF0400035
:10C9300002D07749091D00E05946086047E00678B3
:10C940002EB1012E04D0002626702846CCE0012608
:10C9500082F800900D21B846384607F0CDF84FF424
:10C9600000505F46CBF800000E21404607F0C4F8A7
:10C970004FF48040386001220C21404607F06AF8ED
:10C980000021404607F0EAF8C7F80090DCE716708F
:10C9900000220D21384607F05DF800220E213846AE
:10C9A00007F058F800220C21384607F053F826709B
:10C9B000484699E001885A485A4A0068B0FBF2F0AC
:10C9C0000322801CB0FBF2F04843401EFDD12670CC
:10C9D000A8E798E066702670022085E0214600F006
:10C9E00063FC81E0214600F035FC7DE010F8015B3E
:10C9F0000DB94FF480750146284602F00FFAED1D7F
:10CA00002670E808000400F101106DE0007800F0E5
:10CA10000301491C1176C0F38000507694E721464B
:10CA200000F062F960E021700122144610F8013B29
:10CA30000BE000BF10F8011B11F03F0100D14021B5
:10CA4000C91DC9080A440844521C5B1EF2D244EABC
:10CA5000024049E000782170D4E7217075E7017841
:10CA60001173B0F801101182B0F80300508248E051
:10CA700012782146012A12D0421C12F8013B43B120
:10CA800012F8014BA50701D5E40600D5121D5B1E67
:10CA9000F6D1101A0E7000044E70801C24E000F0D5
:10CAA0006BF921E0054610782146012809D00E7067
:10CAB0004E70A6700321E878800708D541F48020E5
:10CAC00012E0284600F034FB0146F4E707E0B5F831
:10CAD00001004FF4802202EB8040084304E012780A
:10CAE000012A04D02170504600F10110DDE60179E1
:10CAF000D0F8010061F31F6000906946002001F04A
:10CB000065FE2670EFE704F8011C2846CDE600001C
:10CB1000100C01400100020040050020010005004A
:10CB2000F803002040420F002DE9FC47027801F88D
:10CB3000012B0D4610F8011B4FF001140646002092
:10CB4000670080394FF0010804F101090E296FD206
:10CB5000DFE801F0071722313A6E6E6E42525C60D8
:10CB6000647106F01BFA0646FFF73BFCC4B22C705A
:10CB7000681C22463146FFF7AAFC04F58034A41C49
:10CB800056E00724684602F041FD224669462846E1
:10CB9000FFF79DFC2B4C4BE0684602F037FD3068F8
:10CBA0000090684602F04EFD002002F0C1FD85F8BD
:10CBB0000080254C3CE03E21681C09F03DFC00F55E
:10CBC00080342870A41C33E03778701C394609F093
:10CBD000CDFC85F8008027E085F80080317811B120
:10CBE000012902D005E0002000E0012006F0C2FC8F
:10CBF00000E028703C461BE085F8008004F0CAFF86
:10CC000010B9022009F0DEF94C4611E0307808F046
:10CC1000EFF9EEE708F0C0F92870F5E73778701CF7
:10CC2000394608F07BFA287004EB074404F101143C
:10CC30002046BDE8FC872870307800B1012005F05F
:10CC400043FFD7E70900010002000500FF2008703C
:10CC50004FF001107047000038B52148816941F05C
:10CC600004018161816901F004010091816941F051
:10CC700008018161816901F008010091816941F039
:10CC800010018161816901F010010091816941F019
:10CC9000200181618069134D00F0200000900D217A
:10CCA000284606F029FF0F4C6814103420600E212E
:10CCB000284606F021FF4FF48040206001220C211D
:10CCC000284606F0C7FE0021284606F047FF01204F
:10CCD00020600621284606F00FFF4020206038BD66
:10CCE00000100240000C01402DE9F05F002201F825
:10CCF000012B012510F8016B8A46A94604464FF422
:10CD0000804B31E014F8017B17F03F0000D1402048
:10CD1000C01D4FEAD008380608D500220E2115485C
:10CD200006F098FE13495846103106E00E211148CE
:10CD300006F0E2FE0F49584614310860524621467B
:10CD4000384601F0EBFC3EB90E210A4806F0D4FE4D
:10CD500008491431C1F800B0380602D5C244C144B4
:10CD600001E0444445446D1C761ECBD249EA05409F
:10CD7000BDE8F09F000C01402DE9F04F87B08B46D5
:10CD800001F1020804460590E7490020029008706E
:10CD900001906678A41C8146002E71D0DFF88CA328
:10CDA00014F8015BA9076CD5B9F1000F50D0BAF89F
:10CDB000107005F0110001280AD0DFF86C93694665
:10CDC0000E2001F003FD022812D04FF0000905E00B
:10CDD0006946284601F0FAFC022802D0012806D153
:10CDE0000FE07F1E03D3D04909780029F0D047E136
:10CDF0007F1E03D399F800100029E0D04FF00009FE
:10CE00003EE1009988F80010009A08F10101120A29
:10CE100001F8012B009A120C01F8012B009A120E56
:10CE200001F8012B8846B9F1000F11D029060FD562
:10CE3000DAF8081008F1010288F800100B0A02F86D
:10CE4000013B0B0C02F8013B090E02F8011B904656
:10CE5000E9064DD5E17854F8040B61F31F600490A6
:10CE6000BAF812000390E80714D0BAF81070002145
:10CE7000284601F0ABFC022804D00128B7D109E014
:10CE80001FE197E07F1E791CB1D0A74909780029DE
:10CE9000EDD0F5E0BAF810706946284601F096FC2E
:10CEA000022802D0012817D106E07F1E14D39E4924
:10CEB00009780029F0D00FE0DAF8142000990A4030
:10CEC00004998A4208D00399491E0391491C03D052
:10CED000954909780029DDD0DAF81410009A11403C
:10CEE000049A914201D040F01000012816D15FE071
:10CEF000BAF81070E90727D0B9F1000F58D1002116
:10CF0000284601F063FC022802D0012806D106E081
:10CF10007F1E03D3844909780029F0D0B0E02906A8
:10CF20000FD5DAF8082008F1010188F80020130A6B
:10CF300001F8013B130C01F8013B120E01F8012B23
:10CF400088464FF0010933E06946284601F03EFC6F
:10CF5000022802D0012806D106E07F1E03D37249C1
:10CF600009780029F0D08BE029060FD5DAF80810EF
:10CF700008F1010288F800100B0A02F8013B0B0CC3
:10CF800002F8013B090E02F8011B9046009988F84F
:10CF90000010009A08F10101120A01F8012B009A11
:10CFA000120C01F8012B009A120E01F8012B884691
:10CFB00000215AE0B9F1000F25D0BAF81070694687
:10CFC0000E2001F003FC022802D0012858D106E00F
:10CFD0007F1E55D3544909780029F0D050E00098BD
:10CFE00088F80000009908F10100090A00F8011B07
:10CFF00000994FF00009090C00F8011B0099090E77
:10D0000000F8011B8046E17854F8040B61F31F60BF
:10D010000090A90603D5CAF81400012026E0BAF84A
:10D0200010706946284601F0D1FB022802D0012881
:10D0300026D107E07F1E791C22D03B4909780029C0
:10D04000EFD01DE029060FD5DAF8081008F101022B
:10D0500088F800100B0A02F8013B0B0C02F8013BA8
:10D06000090E02F8011B9046012101910299491C09
:10D0700002912D49097819B9761E7FF491AE09E025
:10D0800046B114F8011B8A0701D5C90600D5241D35
:10D09000761EF5E7012839D1B9F1000F25D0BAF88D
:10D0A0001050214E69460E2001F090FB022802D05C
:10D0B00001282BD106E06D1E691C27D0317800298C
:10D0C000F0D023E0009988F80010009A08F10101DF
:10D0D000120A01F8012B009A120C01F8012B009A98
:10D0E000120E01F8012B884610E0019971B1BAF8CF
:10D0F00010500D4E00210E2001F068FB022805D1D2
:10D100006D1E691C02D031780029F3D002998BF88A
:10D1100000108BF801000598A8EB0B01201A07B04E
:10D1200041EA0040BDE8F08F0000002040050020EB
:10D130002DE9F84FDFF814810027044638460D46E4
:10D1400001F1030A88F80070B4F80160E41C002EB5
:10D1500073D014F8019BDFF8F8B05FEA89715CD5F1
:10D160005FEAC9713CD0BBF810400021484601F08D
:10D170002DFB022802D001285FD131E0641E5CD370
:10D1800098F800100029F0D057E026B95FEAC9707E
:10D1900001D04FF00E09BBF810406946484601F037
:10D1A00015FB022802D0012847D106E0641E44D3B3
:10D1B00098F800100029F0D03FE000998AF800109C
:10D1C000009A0AF10101120A01F8012B009A120CCF
:10D1D00001F8012B009A120E01F8012B8A467F1CE0
:10D1E000761ED2D229E0E17854F8040B61F31F6077
:10D1F0000090BBF810806946484601F0E7FA022823
:10D2000002D0012819D107E0B8F1010815D30F4960
:10D2100009780029EFD010E07F1C761EE3D2BBF81E
:10D2200010400A4E00210E2001F0D0FA022804D14D
:10D23000641E02D331780029F4D02F70390A697046
:10D24000A870AAEB0500BDE8F88F000000000020E0
:10D250004005002030B5C2780368104862F31F63B0
:10D260004BB10F4A002415680E4AB3EB950F05D356
:10D27000012353700FE0FF220A7030BD03EB550508
:10D280006D1EB5FBF3F35470022B03D90325B3FBDA
:10D29000F5F300E0012353600C7030BD0100040081
:10D2A000F8030020400500202DE9F0478A46447825
:10D2B00005784179D0F80260344861F31F66E207CF
:10D2C00000F1040106D0EB074FF4005201D00260D8
:10D2D00000E00A60A20706D5AB074FF4804201D5F3
:10D2E000026000E00A60220607D5EA09D3074FF082
:10D2F000010201D0026000E00A60DFF89090A9F11D
:10D300000409A9F104086EB32148864200D90646F3
:10D3100001F018FE0746E00705D0D9F80000C0F379
:10D320004030A84219D1A00706D5D8F80000C0F3B4
:10D330000030B0EB550F10D1600701D5A8080CD113
:10D34000A00601D5680908D120060BD5D8F8000041
:10D3500000F00100B0EBD51F04D001F0F3FDC01BBD
:10D36000B042D8D3D9F80000D8F80020C0F340313B
:10D37000C2F30032D8F8000041EA420141EAC0108D
:10D380008AF800000348BDE8F0870000100C014057
:10D39000C0C62D00010006000A4800210A4A01709B
:10D3A00041701268094BB2FBF3F2921E42600173A6
:10D3B0006422028241820122416102764176FFF7B6
:10D3C0004BBC000040050020F80300208096980028
:10D3D00070B50446D0F808011D460E4600282AD034
:10D3E000402A00DD4022401EC4F80801D4F8100194
:10D3F00004EB8010FFF76BF8D4F8100104EB8011F8
:10D400003046FFF7E7F9D4F8101104EB4101A1F819
:10D410000001D4F8100104EB8010286094F810018A
:10D42000401C00F00300C4F81001D4F80C01401CAB
:10D43000C4F80C01012070BDD0F80C31E3B15B1EC3
:10D44000C0F80C31D0F8143100EB83130B60D0F826
:10D45000141100EB4101B1F80011116090F81411A2
:10D46000491C01F00301C0F81411D0F80811491C3F
:10D47000C0F8081101207047002070470022C0F852
:10D4800010210421C0F81421C0E9421270470000A5
:10D4900001078A0E07490A44D2F8001C000602D58B
:10D4A00048F6CF7001E04CF68F700140C2F8001CC6
:10D4B00070470000005000400207930E0C4A30B540
:10D4C0001344D3F8002C000648F68F7502EA0500D5
:10D4D00048F2800482EA010202D502F0300101E044
:10D4E00002F4405108432043C3F8000C30BD000053
:10D4F0000050004030B585B00546002400F03AF9F0
:10D5000000200090CDE901050120039004A96846A0
:10D5100000F092F800B1012400F0E2F805B02046D6
:10D5200030BD000006490020C8610648016941F08D
:10D5300004010161016941F040010161704700008F
:10D540002824002000200240064A0021D16106491B
:10D550000A6942F002020A614861086940F040002D
:10D56000086170472824002000200240044B00225C
:10D57000DA61044A136943F00103136101807047C3
:10D5800028240020002002400E49C868C2060E4828
:10D5900003D5C26942F00202C261CA68520703D5CC
:10D5A000C26942F00102C261CA69D20707D0C269EA
:10D5B00042F00402C261C86920F00100C861142071
:10D5C000C8607047002002402824002070B505463E
:10D5D00000F0C6F90646114C09E0681C07D025B1D9
:10D5E00000F0BEF9801BA84201D9032070BDE0689D
:10D5F000C007F2D1E068800601D52020E060E06835
:10D60000C00605D4E069C00702D1E068400703D531
:10D61000FFF7BAFF012070BD002070BD002002405E
:10D6200031B500F09DF9044600F09AF90099001B0D
:10D630008842F9D338BD00002DE9F0470546264859
:10D640000F460126017E01290FD001218146017676
:10D650002868DFF888804CF25034022808D0A246AF
:10D660002046FFF7B3FFA8B131E00220BDE8F08704
:10D670002046FFF7ABFF08BB0120FFF753FF204612
:10D68000FFF7A4FFD8F81010064621F00401C8F8EF
:10D6900010101CE04FF0FF303860AC6811E02046FD
:10D6A000FFF752FF5046FFF791FFD8F81010060021
:10D6B00021F00201C8F8101001D03C6007E004F529
:10D6C0008064D5E9020100EB8120A042E7D8002167
:10D6D00089F818103046C9E72824002000200240AD
:10D6E0000348016941F0800101610020704700009A
:10D6F000002002402DE9F05F07461C4888460024C0
:10D70000017E15461E46012909D001218146017678
:10D710004CF2503A5046FFF759FF18B122E0022070
:10D72000BDE8F09F012F02D0022F00D00427D3467E
:10D73000DFF83CA0220128463146FEF713FE81B2F5
:10D7400008EB4400FFF712FF5846FFF73FFFDAF8F7
:10D75000102022F00102CAF8102018B9641CE4B2AB
:10D76000BC42E7D3002289F81820D9E728240020FA
:10D770000020024005480169090605D504494160B9
:10D78000044941600020704701207047002002409A
:10D7900023016745AB89EFCD2DE9F84FDFF890A164
:10D7A00000220AF1040B144601274FF00F090BF178
:10D7B000040E00BF0B6807FA04F52B40AB4274D18E
:10D7C000DFF870C14E68A6EB0C0866452BD00DDC67
:10D7D000032E34D005DC36B3012E19D0022E2FD102
:10D7E0001BE0112E16D0122E2AD119E0B8F5881F91
:10D7F00019D006DCB8F5803F15D0B8F5801F1FD1D1
:10D8000011E0B8F5001F0ED0B8F5041F18D10AE0DA
:10D81000CA6815E0CA68121D12E0CA6808320FE033
:10D82000CA680C320CE08A682AB1012A4FF008025B
:10D8300003D0456104E0042202E0056100E000221B
:10D84000FF2B01D8064601E000F104064FEA8405EB
:10D8500001D9A5F12005D6F800C009FA05F82CEA8F
:10D86000080C02FA05F54CEA050CC6F800C04D6834
:10D87000ED0057D5304DAE6946F00106AE61AD6999
:10D8800024F0030605F0010500952C4D06EB050C70
:10D89000DCF80850A6074FEA167809FA08F6B543EF
:10D8A000274EB04202D1002610E03BE0254EB042A8
:10D8B00001D101260AE0244EB04201D1022605E042
:10D8C000224EB04201D1032600E0042606FA08F6F3
:10D8D0002E43CCF808604D68DAF80060ED03554639
:10D8E00001D51E4300E09E432E604D68DBF80060CA
:10D8F000AD035D4601D51E4300E09E432E604D689A
:10D90000DEF80060ED02754601D51E4300E09E433F
:10D910002E604D68AD020E4D2E6801D51E4300E00D
:10D920009E432E60641C102CFFF444AFBDE8F88FBA
:10D9300000040140000011100010024000000140EE
:10D9400000080140000C014000100140001401409B
:10D950000C0401400AB1016170470904FBE70000B3
:10D96000EFF3108010F0010F72B607480068406AAC
:10D97000064A1368C3EB9000C0F30D001844106012
:10D9800000D162B670470000541D0020D402002070
:10D99000074810B5016841F010010160032000F054
:10D9A0005DF80F2000F006F800F056F8002010BDDA
:10D9B0000020024010B588B006A901A800F024F9A3
:10D9C0000498B0F5806F08D0B0F5A06F35D0B0F5F1
:10D9D000C06F34D0B0F5E06F33D001201A494FF05A
:10D9E000804200240968B1FBF0F04FF47A61B0FB8B
:10D9F000F1F11648491E02604FF6FF72C0E9032498
:10DA0000C0E9011444611248C16941F00101C161DA
:10DA1000C06900F0010000900C4800F048FC0028AC
:10DA200009D10C480460094800F05DFC002802D1CF
:10DA3000064800F075FC08B010BD0220CEE70420B7
:10DA4000CCE70820CAE70000F8030020541D00209E
:10DA500000100240D402002070470000064900F088
:10DA6000070208684FF6FF03184040EA0220034A05
:10DA700010430860704700000CED00E00000FA055C
:10DA80002DE9F047DFF8708105460E46D8F8000012
:10DA900000F00700B0420CD2D8F8001021F00701C6
:10DAA0003143C8F80010D8F8000000F00700B04279
:10DAB00077D12878514C800705D56068A96820F097
:10DAC000F000084360602878C00759D069680120D9
:10DAD00001290DD0022929D05FF0020393FAA3F2A5
:10DAE000B2FA82F242F02002520904D0226803E026
:10DAF0004FF40033F2E7626A93FAA3F3B3FA83F3C5
:10DB000003F01F03984002424BD0606820F00300EE
:10DB100008436060FFF724FF6968074641F28830D8
:10DB200001290DD00229814617D025E04FF000735E
:10DB3000D4E700BFFFF714FFC11B494501D918E026
:10DB400081466068C0F381000128F3D118E000BF6E
:10DB5000FFF706FFC11B49450BD86068C0F3810081
:10DB60000228F5D10CE000BFFFF7FAFEC11B4945C2
:10DB700002D90320BDE8F087606810F00C0FF3D1E4
:10DB8000D8F80010404601F00701B1420BD90168F6
:10DB900021F0070131430160006800F00700B04246
:10DBA00001D00120E6E72878400705D56068E968DC
:10DBB00020F4E060084360602878000706D56068BC
:10DBC000296920F4605040EAC100606000F06CF800
:10DBD0006168F02292FAA2F201F0F001B2FA82F248
:10DBE000D140074A515CC840064908600F20FFF742
:10DBF000E1FE0020BEE700000020024000100240CD
:10DC00001E840108F80300200F2202600C4A5368AA
:10DC100003F003034360536803F0F0038360536829
:10DC200003F4E063C36052684FF4E06303EAD20296
:10DC300002610448006800F00700086070470000B7
:10DC40000010024000200240084809490068496865
:10DC50004FF4E06292FAA2F201F4E061B2FA82F2C9
:10DC6000D140044A515CC84070470000F8030020CE
:10DC7000001002402E8401080848094900684968DC
:10DC80004FF4605292FAA2F201F46051B2FA82F2B9
:10DC9000D140044A515CC84070470000F80300209E
:10DCA000001002402E84010810B519A385B00FCBD7
:10DCB0008DE80F001AA01B4B006804905A681A48A0
:10DCC00002F00C0104291DD008291BD14FF4701457
:10DCD00094FAA4F402F47011B4FA84F4E140D2038B
:10DCE0001DF8011010D55A684FF4003393FAA3F3CE
:10DCF00002F40032B3FA83F3DA4004AB9A5CB0FB6F
:10DD0000F2F0484305B010BD08484843FAE7000068
:10DD100002030405060708090A0B0C0D0E0F10106C
:10DD2000010200000010024000127A0000093D00CC
:10DD30002DE9F84F04460078F74DC0074FF0010673
:10DD400025D068687704C0F38100012807D068688F
:10DD5000C0F3810002281BD16868C00318D597FA68
:10DD6000A7F0B0FA80F040F02000400901D0286808
:10DD700000E0686A97FAA7F1B1FA81F101F01F019A
:10DD800006FA01F108425ED0606800287CD05AE0B3
:10DD90006068B0F5803F0BD010B1B0F5A02F11D066
:10DDA000286820F480302860286820F4802002E071
:10DDB000286840F480302860606828B3FFF7D0FD01
:10DDC00080460BE0286840F480202860F0E700BF20
:10DDD000FFF7C6FDA0EB0800642871D897FAA7F0FA
:10DDE000B0FA80F040F02000400901D0286800E03F
:10DDF000686A97FAA7F1B1FA81F101F01F0106FAFA
:10DE000001F10842E4D01EE0FFF7AAFD804605E0DC
:10DE1000FFF7A6FDA0EB08006428DED897FAA7F06C
:10DE2000B0FA80F040F02000400901D0286800E0FE
:10DE3000686A97FAA7F1B1FA81F101F01F0106FAB9
:10DE400001F10842E4D12078DFF8D08280074FF05A
:10DE500000094FF002075BD568684FF0F80B10F02F
:10DE60000C0F07D06868C0F3810002281CD16868D5
:10DE7000C00319D497FAA7F0B0FA80F040F0200060
:10DE8000400902D0286801E08BE0686A97FAA7F1A0
:10DE9000B1FA81F101F01F0106FA01F108422CD01C
:10DEA000206901287DD128E0206990B396FAA6F078
:10DEB000B0FA80F048F82060FFF752FD824607E094
:10DEC00011E100BFFFF74CFDA0EB0A00022884D847
:10DED00097FAA7F0B0FA80F040F02000400901D096
:10DEE000286800E0686A97FAA7F1B1FA81F101F0B9
:10DEF0001F0106FA01F10842E4D028689BFAABF250
:10DF00006169B2FA82F220F0F8009140084328607B
:10DF100025E0FFE796FAA6F1B1FA81F148F82190E1
:10DF2000FFF71EFD824605E0FFF71AFDA0EB0A0091
:10DF30000228CCD897FAA7F0B0FA80F040F0200081
:10DF4000400901D0286800E0686A97FAA7F1B1FAA1
:10DF500081F101F01F0106FA01F10842E4D12078B5
:10DF600000076ED5A069B8B396FAA6F0B0FA80F0B3
:10DF700008EB8000C0F88064FFF7F2FC824605E001
:10DF8000FFF7EEFCA0EB0A000228A0D897FAA7F052
:10DF9000B0FA80F040F06000B6EB501F02D1286864
:10DFA0000CE062E197FAA7F0B0FA80F040F0600070
:10DFB000B7EB501F01D1286A00E0686A97FAA7F111
:10DFC000B1FA81F101F01F0106FA01F21042D7D037
:10DFD0000120FFF725FB34E0FFE796FAA6F1B1FA3E
:10DFE00081F108EB8101C1F88094FFF7B9FC82460A
:10DFF00006E000BFFFF7B4FCA0EB0A00022872D8CD
:10E0000097FAA7F0B0FA80F040F06000B6EB501F2E
:10E0100001D128680BE097FAA7F0B0FA80F040F041
:10E020006000B7EB501F01D1286A00E0686A97FAD8
:10E03000A7F1B1FA81F101F01F0106FA01F21042D5
:10E04000D8D12078400765D5E86940F08050E86174
:10E05000E869DFF8CCB000F080500090DBF80010E9
:10E0600041F48071CBF80010FFF77AFC824605E09E
:10E07000FFF776FCA0EB0A00642834D8DBF8000038
:10E08000C005F5D5E06801280AD008B1052813D0ED
:10E09000286A20F001002862286A20F0040002E0CB
:10E0A000286A40F001002862E06841F2883B90B3A2
:10E0B000FFF756FC82460BE0286A40F00400286215
:10E0C000EEE700BFFFF74CFCA0EB0A0159450AD868
:10E0D00097FAA7F0B0FA80F040F04000B6EB501F7E
:10E0E00002D128680CE0A3E097FAA7F0B0FA80F01C
:10E0F00040F04000B7EB501F01D1286A00E0686A89
:10E1000097FAA7F1B1FA81F101F01F0206FA02F1C4
:10E110000842D7D031E005E0001002400000424242
:10E1200000700040FFF71CFC824605E0FFF718FC7A
:10E13000A0EB0A0159457BD897FAA7F0B0FA80F016
:10E1400040F04000B6EB501F01D128680BE097FA71
:10E15000A7F0B0FA80F040F04000B7EB501F01D1BB
:10E16000286A00E0686A97FAA7F1B1FA81F101F034
:10E170001F0206FA02F10842D8D1E06980B369684B
:10E18000C1F38101022970D04FF080714F00022845
:10E19000484609D091FAA1F1B1FA81F148F821007D
:10E1A000FFF7DEFB044669E08A4691FAA1F1B1FA75
:10E1B00081F1C14648F82100FFF7D2FB804605E017
:10E1C000FFF7CEFBA0EB0800022854D897FAA7F07F
:10E1D000B0FA80F040F02000400902D0286801E049
:10E1E00061E0686A97FAA7F1B1FA81F101F01F01C5
:10E1F00006FA01F10842E3D1206AB0F5803F05D16B
:10E200006868A16820F4003008436860D4E9080118
:10E210000843696821F47411084368609AFAAAF007
:10E22000B0FA80F049F82060FFF79AFB044606E058
:10E2300021E000BFFFF794FB001B02281BD897FAD0
:10E24000A7F0B0FA80F040F02000400901D0286823
:10E2500000E0686A97FAA7F1B1FA81F101F01F01B5
:10E2600006FA01F10842E5D01DE01EE0FFF778FB59
:10E27000001B022802D90320BDE8F88F97FAA7F007
:10E28000B0FA80F040F02000400901D0286800E09A
:10E29000686A97FAA7F1B1FA81F101F01F0106FA55
:10E2A00001F10842E2D10020E6E70120E4E710B5E1
:10E2B0000446022084F839002068016A41F21112F4
:10E2C000114207D1016A9210114203D1016821F075
:10E2D00001010160204600F021F8002084F8390097
:10E2E00084F8380010BD10B5040003D094F839004C
:10E2F00010B107E0012010BD002084F8380020464E
:10E3000000F00DF8022084F83900211D206800F08B
:10E3100039FE012084F83900002010BD7047704795
:10E32000022180F8391001680A6842F001020A608F
:10E33000012180F839100020704770B5044690F82C
:10E3400038000D4601280DD0012684F838600220DF
:10E3500084F8390042B1042A18D0082A2AD00C2A9D
:10E360004DD139E0022070BD206800F049FE2068E0
:10E37000816941F0080181612068816921F004010F
:10E380008161206881692A69114311E0206800F0E9
:10E390005FFE2068816941F40061816120688169C4
:10E3A00021F480618161206881692A6941EA022142
:10E3B000816124E0206800F077FE2068C16941F0A7
:10E3C0000801C1612068C16921F00401C1612068B0
:10E3D000C1692A69114311E0206800F091FE2068AC
:10E3E000C16941F40061C1612068C16921F48061A3
:10E3F000C1612068C1692A6941EA0221C16184F8CA
:10E400003960002084F8380070BD10B50446022041
:10E4100084F839002068016A41F21112114207D1D3
:10E42000016A9210114203D1016821F001010160DB
:10E43000204600F021F8002084F8390084F83800E4
:10E4400010BD10B5040003D094F8390010B107E0F6
:10E45000012010BD002084F83800204600F00DF89F
:10E46000022084F83900211D206800F08BFD012076
:10E4700084F83900002010BD7047704710B504467D
:10E480000068012200F0B0FD07492068884203D1EE
:10E49000416C41F4004141642068016841F0010190
:10E4A0000160002010BD0000002C014070B5040088
:10E4B00018D0022084F839002068C16821F4005186
:10E4C000C16020680025C56020680561206845613D
:10E4D000204600F038F8E56384F8395084F8385065
:10E4E000002070BD012070BD70B5040004D094F808
:10E4F0003900002510B106E0012070BD84F83850C5
:10E50000204600F021F8022084F839002068C16814
:10E5100021F40051C160204600F014FE206801691A
:10E5200021F4904101612068416921F02A01416193
:10E530002068C16841F40051C160E563012084F89E
:10E540003900002070BD704770470000EFF3088469
:10E550000EF00F000D2801D1EFF30984A08B04F118
:10E560002005800500D52D1D5FEACE6000D448351A
:10E57000704603F073FBEFF3098003F06FFBEFF3DA
:10E58000088003F06BFBEFF3148003F067FB284671
:10E5900003F064FB606903F061FBA06903F05EFBBC
:10E5A000E06903F05BFB1248006803F057FB10487A
:10E5B000001F006803F052FB0D48001D006803F0C7
:10E5C0004DFB0B481030006803F048FB084808304A
:10E5D000006803F043FB06480C30006803F03EFB84
:10E5E0004A2204A1002003F05DF900F099FCFEE747
:10E5F0002CED00E02E2E5C6461706C696E6B5C48E3
:10E600006172644661756C745F48616E646C6572BA
:10E610002E630000002070471CB506F0C7FF0028DD
:10E620001BD09E208DF80000E7208DF80100694680
:10E63000102000F0F3FB06F0B9FF00280DD00020F9
:10E640008DF800006946082000F0E8FB01A90020D1
:10E6500006F03EFF012800D000201CBD70B5104C14
:10E660000D21204605F061FA0D4D6014103528602B
:10E670000E21204605F059FA4FF48040286001220F
:10E680000C21204605F00FFA206820F00F002060D2
:10E69000206840F0070020600120286070BD000065
:10E6A000000C01402DE9F04117460D46804600263A
:10E6B000FFF760F8A80706D000206E220DA103F036
:10E6C000F1F800240EE00120F7E700BF57F82420FE
:10E6D00008EB840100230220FFF70CF808B10126A3
:10E6E00003E0641CB4EB950FF0D3FEF7F9FF30465E
:10E6F000BDE8F0812E2E5C6869635F68616C5C73B5
:10E70000746D33325C73746D3332663130337862DA
:10E710005C666C6173682E63000000002DE9F043B5
:10E7200010F03F0300D14023DFF89C800406254F02
:10E73000D8F804004FF480494FF40055A7F1040CB9
:10E740001DD43CE00021082614E03D60D8F8040008
:10E750000446641EFDD11B4C0C3C2468CCF80050D0
:10E76000C4F30034401EFDD148085B1E40EAC411CA
:10E77000761E01D0002BE8D1F14002F8011B002BDE
:10E78000E0D1BDE8F08300BF11F8012B082613E0AB
:10E79000D4074C4602D0CCF8004000E03C603D601D
:10E7A0000446641EFDD1CCF800500446641EFDD121
:10E7B00052085B1E761E02D0002BE9D1E1E7002B48
:10E7C000E2D1DEE7140C014040050020034A5278F4
:10E7D0000AB100F005B800F02FB900004005002094
:10E7E0002DE9F05F924E8E464FF4804131604C101F
:10E7F000351D2C603460C20701D0316000E0296013
:10E800002C6034604208D70701D0316000E02960F5
:10E810002C60346083188208D70701D0316000E093
:10E8200029602C6034601344C208D70701D03160DE
:10E8300000E029602C6034601A44D20701D03160B6
:10E8400000E029602C60346029602C603460316005
:10E850002C603460DFF8D8A1AAF1100ADAF804308D
:10E8600023F07063CAF80430DAF80430CAF80430D0
:10E8700089463160DFF8BCB19BF818100A1E03D03E
:10E880002C603460491EFBD12C60694908390B6843
:10E890003460C3F300332C600F683460C7F3003773
:10E8A00043EA47032C600F683460C7F3003743EA3C
:10E8B0008707012F1CD0022F6FD0042F6DD021327B
:10E8C00003D02C603460521EFBD1DAF8041021F022
:10E8D0007061CAF80410DAF8041041F04071CAF807
:10E8E00004104846C5F8009030603846BDE8F09FF7
:10E8F000830733D54FF0000C624620232C60D1F8FB
:10E9000000803460C8F300384FEA5C0C42444CEAA3
:10E91000C87C5B1EF2D12C600968346082EA113237
:10E92000D10700D00827BEF1000F01D0CEF800C0FB
:10E930009BF8181019B12C603460491EFBD1DAF82D
:10E94000042022F07062CAF80420DAF8042042F0B1
:10E950004072CAF80420C5F800902EE01AB12C606D
:10E960003460521EFAE7DAF8042022F07062CAF826
:10E970000420DAF8042042F04072CAF804204A4623
:10E98000C5F80090DEF8001000234FF0200C00BF07
:10E990005FEAC17802D0326001E01FE02A602C609B
:10E9A00034600B444908BCF1010CF1D1D90701D006
:10E9B000326000E02A602C603460000603D500F06D
:10E9C000D1FACBF808009BF80C0028B1C5F80090EC
:10E9D0002C603460401EFBD1484685E79BF8193017
:10E9E00033B1810704D521212C603460491EFBD14D
:10E9F0001AB12C603460521EFAE7DAF8042022F0D3
:10EA00007062CAF80420DAF8042042F04072CAF8B2
:10EA100004204946C5F800903BB1800705D4296021
:10EA200021202C603460401EFBD131605DE7000086
:10EA3000100C0140400500202DE9F05FF54D4FF42A
:10EA400080438E464FF0000C2B605A102C1D226024
:10EA5000F14F79680E46761EFDD12A600E46761E6D
:10EA6000FDD1C60701D02B6000E0236022600E4676
:10EA7000761EFDD12A600E46761EFDD146088444DE
:10EA80005FEAC67801D02B6000E0236022608846F0
:10EA9000B8F10108FCD12A604FEA0108B8F1010879
:10EAA000FCD1B44486085FEAC67801D02B6000E050
:10EAB000236022604FEA0108B8F10108FCD12A6006
:10EAC0004FEA0108B8F10108FCD1B444C6085FEA76
:10EAD000C67801D02B6000E0236022604FEA010875
:10EAE000B8F10108FCD12A604FEA0108B8F1010829
:10EAF000FCD16644F60701D02B6000E02360226061
:10EB00000E46761EFDD12A600E46761EFDD123608C
:10EB100022600E46761EFDD12A600E46761EFDD17D
:10EB20002B6022600E46761EFDD12A600E46761EB0
:10EB3000FDD1DFF8E0B2ABF1100BDBF804C02CF034
:10EB4000706CCBF804C0DBF804C0CBF804C09A4664
:10EB50002B6097F818C05FEA0C030AD022600E46BB
:10EB6000761EFDD12A600E46761EFDD1BCF1010C49
:10EB7000F4D122600E46761EFDD1DFF898C2ACF1CA
:10EB8000080CDCF800602A60C6F300364FEA010882
:10EB9000B8F10108FCD122600F467F1EFDD1DCF8E0
:10EBA00000702A60C7F300374FEA0108B8F1010886
:10EBB000FCD146EA470622600F467F1EFDD1954FE5
:10EBC000083F3F689146C7F300372A600A46521E45
:10EBD000FDD146EA8706012E23D0022E75D0042EE1
:10EBE00073D021330AD04A4622600846401EFDD128
:10EBF0002A600846401EFDD15B1EF5D1DBF80410EB
:10EC000021F07061CBF80410DBF8041041F0407182
:10EC1000CBF804105046C4F800A028603046BDE888
:10EC2000F09F820752D54FF0000843465FF020075F
:10EC3000C4F800900A46521EFDD1764A083A12687E
:10EC4000C5F80090C2F3003C0A46521EFDD14FEABF
:10EC50005802634442EACC787F1EE9D14A46C4F8A0
:10EC60000090DFF8B4C10F467F1EFDD1694F083F09
:10EC70003F682A60C7F30037491EFDD17B40D907A2
:10EC800000D00826BEF1000F01D0CEF800809CF81D
:10EC900018305BB1DCF8041022600F467F1EFDD1F6
:10ECA0002A600F467F1EFDD15B1EF5D1DBF80420E4
:10ECB00022F07062CBF80420DBF8042042F04072AE
:10ECC000CBF80420C4F800A044E05CE053B14F4608
:10ECD00027600A46521EFDD12F600A46521EFDD102
:10ECE0005B1EF5D1DBF8043023F07063CBF8043001
:10ECF000DBF8043043F04073CBF80430C4F800A0D4
:10ED0000DEF8002000274FF0200CC846D3075346FA
:10ED100001D02B6000E02360C4F800800B465B1E2E
:10ED2000FDD1C5F800800B465B1EFDD1174452088B
:10ED3000BCF1010CEAD1FA07524601D02A6000E08A
:10ED400022604346C4F800800A46521EFDD12B6063
:10ED5000491EFDD1000603D500F004F92E49886054
:10ED60002D48027B6AB1C4F800A040684B4623607E
:10ED70000146491EFDD12B600146491EFDD1521EA0
:10ED8000F5D1504649E7244A92F819C0BCF1000F6A
:10ED900010D082070ED521274FEA0908C4F8008059
:10EDA0000A46521EFDD1C5F800800A46521EFDD10A
:10EDB0007F1EF3D153B14F4627600A46521EFDD144
:10EDC0002F600A46521EFDD15B1EF5D1DBF80430E0
:10EDD00023F07063CBF80430DBF8043043F0407369
:10EDE000CBF804305246C4F800A0BCF1000F0ED09E
:10EDF00080070CD4226021234F4627600846401E1E
:10EE0000FDD12F600846401EFDD15B1EF5D12A6062
:10EE100004E70000100C014040050020F0B5124F3F
:10EE2000124A00252C464FF4804EA7F1040C7E14A4
:10EE3000526815E014B911F8015B0824EB0702D001
:10EE4000CCF800E001E0C7F800E03E6013465B1E2E
:10EE5000FDD1CCF8006013465B1EFDD16D08641E29
:10EE6000401EE7D2F0BD0000140C01404005002018
:10EE7000144910B54868144A10F00C03134803D025
:10EE8000042B01D0082B09D002604968104AC1F355
:10EE90000311515C0268CA40026010BD4A684B68A9
:10EEA00002F470124FF0020413F4803F04EB92421C
:10EEB00002D04B689B0301D5064B00E0024B5A433E
:10EEC000E2E700000010024000127A00F803002080
:10EED0001E84010800093D000D48016841F0010150
:10EEE000016041680B4A1140416001680A4A1140C3
:10EEF0000160016821F480210160416821F4FE0174
:10EF000041604FF41F0181600449C00308607047ED
:10EF1000001002400000FFF8FFFFF6FE08ED00E0E1
:10EF2000BFF34F8F05480168054A01F4E0611143C2
:10EF30000160BFF34F8F00BFFDE700000CED00E064
:10EF40000400FA05044805490068B0FBF1F00449E3
:10EF50004968B1FBF0F07047F803002040420F0011
:10EF6000001000E0044805490068B0FBF1F00449D6
:10EF70004968B1FBF0F07047F803002040420F00F1
:10EF8000001000E0F0B50268144B154C154D4FF021
:10EF90008047984205D0B84203D0A04201D0A84291
:10EFA00003D122F070064A683243984205D0B84235
:10EFB00003D0A04201D0A84203D122F44074CA6811
:10EFC000224302608A68C2620A688262984201D162
:10EFD0000969016301214161F0BD0000002C01407D
:10EFE000000400400008004010B50123046A8B4073
:10EFF0009C430462036A8A401343036210BD00000D
:10F0000030B5026A22F001020262026A4368846932
:10F0100024F073050C682C4322F002058A682A4309
:10F020000A4DA8420BD122F00805CA6823F44073A8
:10F030002A434D6922F004021D438B692B43436030
:10F04000846149684163026230BD0000002C0140C8
:10F0500030B5026A22F010020262026A43688469D3
:10F060000D6824F4E64444EA05248D6822F0200269
:10F0700042EA05120B4DA8420ED1CD6822F0800263
:10F0800042EA05124D6923F4406343EA85038D6922
:10F0900022F0400243EA850343608461496881634A
:10F0A000026230BD002C014030B5026A22F4807249
:10F0B0000262036A4268C46923F4007324F0730592
:10F0C0000C682C438D6843EA05230C4DA8420ED1F1
:10F0D000CD6823F4006343EA05234D6922F44052CE
:10F0E00042EA05128D6923F4806342EA0512426008
:10F0F000C4614968C163036230BD0000002C014057
:10F1000030B5026A22F480520262046A4268C3691E
:10F110000D6823F4E64343EA05238D6824F4005484
:10F1200044EA0534064DA84204D14D6922F48042D8
:10F1300042EA85124260C36149680164046230BDDD
:10F14000002C01402DE9F041044600680169E268A5
:10F1500021F44051114301612169A06808436169AC
:10F1600008432168CA6841F20C639A430243CA60AB
:10F1700020684169A26921F44071114341614C4901
:10F1800020686425322688423CD1FEF775FD00EBED
:10F19000C00101EB001061688900B0FBF1F7FEF7D8
:10F1A0006BFD00EBC00101EB00106168B046890007
:10F1B000B0FBF1F0B0FBF5F06FF01801484307EB3E
:10F1C000800106EB0110B0FBF5F000F0F006FEF751
:10F1D00053FD00EBC00101EB001061688900B0FB3A
:10F1E000F1F0B0FBF5F006EB0016FEF745FD00EB85
:10F1F000C00101EB001061688900B0FBF1F7FEF778
:10F200003BFD3BE0FEF720FD00EBC00101EB0010F1
:10F2100061688900B0FBF1F7FEF716FD00EBC00155
:10F2200001EB00106168B0468900B0FBF1F0B0FB63
:10F23000F5F06FF01801484307EB800106EB011071
:10F24000B0FBF5F000F0F006FEF7FEFC00EBC001AD
:10F2500001EB001061688900B0FBF1F0B0FBF5F044
:10F2600006EB0016FEF7F0FC00EBC00101EB00100E
:10F2700061688900B0FBF1F7FEF7E6FC00EBC00126
:10F2800001EB001061688900B0FBF1F0B0FBF5F014
:10F290006FF01801484307EB800108EB0110B0FB49
:10F2A000F5F0216800F00F0030448860BDE8F0817F
:10F2B0000038014070B515480468154DA00612D5F8
:10F2C0002868C6B2134802F07DFB132804D93146E2
:10F2D000104802F0E1FB06E005D14FF013020EA149
:10F2E0000C4802F027FC200607D5104802F07BFBF3
:10F2F00020B10E4802F098FB286070BD0448083029
:10F3000001680B4A1140016070BD000000440040DC
:10F3100004440040A01F00203C4441504C696E6BE7
:10F320003A4F766572666C6F773E0A00901D00203A
:10F330007FFFFFEF002070470348D0E90410081A50
:10F3400002490988081A70477004002022820108C7
:10F3500070B50B4D0C460346D5E90C0188420BD91C
:10F36000401A844200DD044622461846FDF7AFF8F5
:10F37000686B2044686300E00024204670BD0000F4
:10F3800070040020002070472DE9F041194C0D4613
:10F390000746D4E90401401A17490988081A0028C9
:10F3A00002DC0020BDE8F081854200DD0546D4E99D
:10F3B0000602002690420FD3104A431911448B4293
:10F3C0000AD30E1A904632463946FDF780F8374484
:10F3D000AD1B4046C4F8188035B12A463946FDF7C2
:10F3E00076F8A0692844A0612169A8190144216127
:10F3F000D8E7000070040020228201087A23002050
:10F4000010B5054C6068002805D10120606000F04F
:10F4100005F80020606010BD700400202DE9F04761
:10F42000234CA06800283DD0D4E90401421AE068CA
:10F430004FF00006104337D020461E4FDFF878808B
:10F44000DFF878901E4DC1697AB1A069814205D379
:10F4500038888B182844834200D3421A99F8003028
:10F4600038F81300904200DA02461648E660007849
:10F4700040F0800002F040F9E1690144E161626915
:10F48000024462613B882B448B4200D1E5612169D3
:10F4900091420BD199F8002038F81210814205D121
:10F4A0000120E060BDE8F087A660FBE7E660F9E7D1
:10F4B000700400202282010826820108B304002083
:10F4C0007A2300202082010810B50B4C206A18B165
:10F4D000A06A401CA06210BD01202062606200F0A2
:10F4E0000DF8002060622062D4E90C018842F2D05D
:10F4F000401AFFF747FF10BD7004002010B5134CF1
:10F500001348164B216B0A1A12481B780088821A7E
:10F51000114830F8130082420EDB1148007801F0E8
:10F5200023FD216B08442063A06A00280CD0616A87
:10F53000002909D1401E06E00120E062606A00282F
:10F5400002D0A06A401CA06210BD00007004002020
:10F55000BA2300202482010826820108B304002077
:10F560002182010810B50446400702D52046FFF766
:10F57000ABFF200704D52046BDE81040FFF740BF91
:10F5800010BD7047002070470020704710B50B4831
:10F5900000F03CF8002810D0084A094811680170B2
:10F5A0000B0A43700B0C8370090EC1701179017145
:10F5B0005179417191798171012010BDA804002019
:10F5C000782200200E4810B5002141608160C160A2
:10F5D0000C4A0161C0E90512C0E9072141620A4AEB
:10F5E0008162C0E90B124263018038304FF4165239
:10F5F0000260017141710821817100F015F810BDA0
:10F60000700400207A230020BA23002005490A68EC
:10F6100002600A7982714A79427189790171012007
:10F62000704700003805002010B506F0ADFE03F06D
:10F6300041FE012010BD10B506F006FF012010BDEF
:10F6400001207047064902680A6082790A7142798E
:10F650004A71007988710020C871084606F006BF1B
:10F660003805002010B5104800241049446084601B
:10F67000C4600461C0E90541C0E9071444620C4953
:10F680008462C0E90B4141630480FFF7D4FF064860
:10F690004FF41651383001600471447108218171B2
:10F6A000FFF7D0FF10BD0000700400207A23002077
:10F6B000BA23002010B5FFF7D5FF10BD70B519486B
:10F6C000007800282DD0184C00250126206A50B95A
:10F6D000D4E90C10814206D11448814203D0206342
:10F6E000E56225626063A06A70B1206A60B9E06A71
:10F6F00050B92662FFF702FF2562D4E90C01884267
:10F7000002D0401AFFF73EFED4E90101084308D1B8
:10F71000D4E90401884204D06660A660FFF77EFE4B
:10F72000656070BDB104002070040020BA23002081
:10F7300070B505460D480068C0698047A0B90C4CFB
:10F7400035B103F035FF2060002006F03BFC0BE0F4
:10F7500003F02EFF2168401AB0F5967F01D30120F7
:10F7600000E0002003F0AEFD012070BD6C7B0108BD
:10F77000340500200020704700207047024910B572
:10F780000880FFF75DFF10BD70040020084810B529
:10F79000C178026861F31F6206490A6002790A7142
:10F7A00042794A71807988710846FFF74BFF10BD96
:10F7B00078220020A804002000B50346FDF768FE6B
:10F7C00043F2300118465DF804EBFDF775BE00000A
:10F7D000F0B58378204A03F00F041E06576881882D
:10F7E000158803F00F0307EB031304D5491C21F020
:10F7F00001011D6011E09D603E2909D91F3121F0F2
:10F800001F014FF0FF3505EB411545F4004503E0BE
:10F81000491C21F001014D02DD6013880B44138067
:10F82000C07810F0030006D0012807D0022808D0C5
:10F8300003280AD107E04FF4007106E04FF480611D
:10F8400003E0002101E04FF4C061044A214302EBD0
:10F850008400C0F8001CF0BDE4030020005000400C
:10F86000002802D10149D02008807047E40300201D
:10F8700000F0CABA0949CA1350B10120086000203B
:10F8800008600B1D18604FF4E0500860044803E066
:10F89000032008600248001D02607047405C004081
:10F8A0001008014010B50B4C0B49A0880A78904213
:10F8B00000D802461AB9074900201439087180207F
:10F8C000216801F019FF216801442160A188081A0C
:10F8D000A08010BDC40400200782010810B5064CAA
:10F8E0000020A288216801F03FFB216801442160CB
:10F8F000A188081AA08010BDC40400207047002110
:10F90000FDF7DABD43F22001FDF7D6BD2DE9F04742
:10F910006F4C074680074FF00009A4F10805A4F1D9
:10F920001C0623D501F0B2FE2078C009FFF7E6FFE0
:10F93000E088A8802078C0F3411121B101295CD072
:10F94000022971D167E06178DFF888810C296BD2D8
:10F95000DFE801F0060D6A156A1A296A2D333A4864
:10F9600001F02EFC21E000BFFFF79CFF68E00020C3
:10F9700006E000BF01F09AFED8F8000039E001204F
:10F9800001F05CFCC0B3F5E710F01F0F4CD1A0787C
:10F99000012140F08000307000F07F0001F068FE2F
:10F9A00001F084FE4CE001F00BFB28B3DCE710F023
:10F9B0001F0F39D146481B3812E001F08FFCD8B137
:10F9C00001F074FE444813E000F01F0001282BD121
:10F9D000707888B12079B178884225D23F490844AF
:10F9E0002860C1E701F044FD30B101F05FFE3C4802
:10F9F000006828B3804723E016E010F01F0013D002
:10FA0000012811D100F004F9D0B900F05DF9B8B9BE
:10FA100000F0AEF807E010F01F0F05D100F082F9FA
:10FA200070B900F0C3F958B92078000603D4E08813
:10FA300008B1002000E0802001F024FEA5F8049029
:10FA4000780721D5207800061CD4A888E0B1FFF7FC
:10FA500045FFA888C0B92078C0F3411161B10129E0
:10FA60000AD110F01F0007D0012805D100F062F87C
:10FA700050B900F037F838B9802001F003FEA5F83E
:10FA8000049001E001F018FE380712D52078000636
:10FA900006D5A888317908430BD0FFF703FF08E0AB
:10FAA0003078010605D500F07F003070002101F0AC
:10FAB000DFFD780602D50020FFF77EFE380604D56C
:10FAC000BDE8F0478020FFF777BEBDE8F087000073
:10FAD000CC0400208882010880820108D70300201E
:10FAE0008482010810B51048104A017912789142B9
:10FAF00003D00F4A1278914214D1417821B10229E2
:10FB000005D020290ED10AE0FFF734FE02E040883C
:10FB1000FFF732FE30B101F0C9FD012010BDFFF743
:10FB200035FEF7E7002010BDCC040020E0020020E5
:10FB3000E102002010B50B480B4A0179127891427E
:10FB400003D00A4A1278914209D14078092806D197
:10FB500000F060FB18B101F0A9FD012010BD0020EC
:10FB600010BD0000CC040020E3020020E5020020CC
:10FB700070B52249224A08791278904203D0214A6E
:10FB80001278904238D11D4849781F4C1F4D40884B
:10FB900004291FD007DC79B101290FD002290BD02D
:10FBA000032929D111E0202906D021291AD02229A0
:10FBB0001BD0232920D11BE02C6011E0FFF7E4FCCF
:10FBC00005E02C60FFF76EFE0AE0FFF7DBFC002883
:10FBD000F7D111E0FFF7AEFB0CE000BF01F066FDCE
:10FBE000012070BDFFF7D2FCF1E7FFF7C7FD01E090
:10FBF000FFF79EFD0028F1D1002070BDCC0400204D
:10FC0000E0020020E102002078220020C40400204D
:10FC10002DE9F041244C254920790978884203D008
:10FC20002349097888423DD16078224D224E234FE6
:10FC30000C2837D2DFE800F03606212D363636366E
:10FC40003616243200F006FA60B3E078012802D0BC
:10FC5000032803D003E01A48286000E02E60FFF775
:10FC600021FE13E0E078022802D0032803D00DE043
:10FC7000144828600AE02E6008E000F0D3F90AE09A
:10FC800000F0A2FA0CE000BF01F010FD0120BDE879
:10FC9000F08100F0D5F928B12F60E0E700F0B0FA6C
:10FCA0000028F1D10020F2E7CC040020E30200207C
:10FCB000E5020020C4040020E20300207822002096
:10FCC000B9220020FA22002010B51248124A017908
:10FCD000127891421CD1014642784888C988FE2A90
:10FCE00009D0FF2A14D198B991B901F08DF878B1F3
:10FCF00001F0DCFC0AE058B9012909D100F0A6FDA9
:10FD000030B1074905480860FFF7CCFD012010BD60
:10FD1000002010BDCC040020E40200207822002046
:10FD2000C404002070B51B4D1B4900266878097873
:10FD300088422CD1A888022829D1184CA97811B35F
:10FD4000002003E0227802B11444401C421C91427E
:10FD5000F8D82078B0B103F0C3F80146E01CFCF7F6
:10FD6000AAFB0F4901260C602078EA8882420BD951
:10FD700088800C490978491E084206D10A490120A9
:10FD8000087002E0002602E08A80FFF78BFD304613
:10FD900070BD0000CC0400202A82010898030020D6
:10FDA000C404002007820108B404002010B5104AE2
:10FDB0001049002450780978884217D19088072884
:10FDC00014D10E480C49012401600989D2888A4265
:10FDD00009D981800A480078401E014204D10949AE
:10FDE0000120087000E08280FFF75CFD204610BD16
:10FDF000CC0400202B820108EA020020C404002069
:10FE000007820108B4040020074800214170C16046
:10FE100001614161418081808161C161C180018155
:10FE20000162418170470000D40400202DE9F047B1
:10FE3000494CA08861884A4DDFF820816F1C00265C
:10FE4000884216D3A069A0B96661A68001232978EB
:10FE50006A1C184606F0B0FE6080608848B1656193
:10FE600098F80000012801D8676102E06088401C12
:10FE7000608060884FF00109B0BBE06808B1E660BF
:10FE800032E0206980B398F8001001290DD82E7057
:10FE9000A68002236A1C0021012006F08DFE6080EE
:10FEA000608800B1676126611EE02F78C846202F68
:10FEB00000D3002708FA07F1014218D0781CC1B21C
:10FEC0002970A68002236A1C012006F075FE60805E
:10FED000608818B165616088401C6080206908FAFC
:10FEE00007F820EA08002061608830B902E07F1C32
:10FEF000FFB2DCE7A069002829D06088A188DFF87C
:10FF00006880401A85B2174F98F8000037F8100043
:10FF1000A84200D205461548007828B140F080007C
:10FF20002A46616901F0E8FB606911492844606173
:10FF3000A088284480B2A0800988884209D298F815
:10FF4000000037F81000A84203D1C4F81890BDE8AB
:10FF5000F087A661FBE70000D404002012820108AC
:10FF6000B82200200E820108B30400200882010894
:10FF700014820108F8B51C4C1C4D1D4F2089002629
:10FF800018B9E5613888E0802681E0882189421A25
:10FF90001848E169007800F0E7FF0004E169000C0F
:10FFA0000144E161218901448BB2238109D0398860
:10FFB0008B4206D2114A1049127831F81210814250
:10FFC00010D90F48017801200129009003D80021A1
:10FFD000064A022003E029786A1C02205B1E06F014
:10FFE00079FE2681F8BD0000D4040020F92200200B
:10FFF00016820108098201080E820108B30400205C
:020000040801F1
:100000001382010810B50446000702D52046FFF709
:100010000DFF600704D52046BDE81040FFF7AABFDA
:1000200010BD0000034804498078085C034908704B
:1000300001207047CC040020E0030020782200203B
:1000400010B506F0B7FD02490870012010BD000090
:10005000782200200B4910B5C8780022012804D06E
:10006000022804D0032806D103E0074A02E000205A
:1000700010BD064A521C8978002306F09DFD012020
:1000800010BD0000CC040020B8220020E1030020B5
:100090002DE9F05F4348007800287DD042480423D2
:1000A00000250278A946511C017040490C7804EBE8
:1000B000440B03FA0BF35B1E9A4202DB80F80090BC
:1000C00001253B4900220B88FF2B01D25B1C0B80D2
:1000D000384B374933F814A009888A4500D10122EA
:1000E000354B8646002100699EF8006093F800C0F9
:1000F0003FE0002765B1314B5C5CFF2C01D2641CF2
:100100005C542F4C645C1CB15B5CA34200D30127A0
:100110002B4B4FF0020808FA0BF85B5C03FA08F46B
:10012000544502DA0BB1012400E0002432B12CB1B5
:100130004FF0010808FA01F848EA0000DFF884806F
:1001400018F8018043450AD01C4B5B5C434503D340
:1001500001238B4018430026194B03F8018037B167
:1001600014B901238B401843144B03F80190491C28
:10017000C9B26145BDD3CEF8100071468EF800605B
:1001800012B10B4AA2F80090002808D04888002835
:1001900005D1BDE8F05F00E001E0FFF747BEBDE834
:1001A000F09F0000B1040020D4040020B30400201C
:1001B000DC0300200A82010812820108DE0300200D
:1001C000DF030020E0030020094809498078C9784E
:1001D00010B1084A815409E0084A0020064B127801
:1001E00002E01954401CC0B29042FAD3012070477B
:1001F000CC040020DF030020E0030020128201086D
:10020000034810B5807806F063FD012010BD0000A2
:10021000CC0400200C4908B5C8780022012804D07D
:10022000022804D0032806D103E0002008BD074AB5
:1002300000E0074A521C00230093CB88897806F01F
:1002400049FD012008BD0000CC040020F922002057
:10025000E10300202DE9F041EFF3108010F0010FD1
:1002600072B6394D4FF000012C69296100D162B698
:10027000600507D501F094F906F0DAFD334800680F
:1002800000B18047200505D501F020FA304800680C
:1002900000B18047E00405D501F024FA2D4800683C
:1002A00000B18047A00503D52B48006800B1804706
:1002B0002A4E600403D5316809B102208847DFF86F
:1002C000A080A0042BD5316849B3012026E000BFEF
:1002D000EFF3108010F0010F72B6224A4FF00B03BB
:1002E00052F8212001F10101B1FBF3F603FB1611D5
:1002F000A96000D162B696B2170C380604D558F83A
:10030000261009B108208847380408D558F8261067
:1003100029B1380501D5022000E0042088472004D7
:100320000FD5EFF3108000F0010072B6D5E902128C
:10033000914201D1012200E0002200B962B6002AF8
:10034000C6D0BDE8F0810000E40300202C82010843
:100350003082010834820108388201083C82010899
:1003600040820108FC230020064810B5C16941F411
:100370000001C161142001F047FA03494FF4004025
:10038000086010BD001002401408014070B500F074
:10039000FDF800281CD00F4802220F4D0270427059
:1003A0000E4C03202A632870A068022803D9A4F108
:1003B0001F008260A2600A480649007840F0800071
:1003C00001F09AF9A068296B401AA06001202073FF
:1003D00070BD00003A230020FC040020D72B002031
:1003E00018820108114810B50178022908D00329A4
:1003F00010D0042912D0052901D10021017010BDAF
:100400000B48C07B282801D0A828F8D1BDE81040AF
:1004100000F060BABDE8104000F02EBD054800783D
:1004200040F0800000F040FDF4E70000FC040020F4
:10043000B82B0020188201081F4910B50A78B2B302
:10044000012A0ED01D48052A00781BD0072A29D082
:1004500000F02AFD1A4902200873BDE8104000F0A0
:100460000BBD17481F38C07B2A2803D02F2805D082
:10047000AA2820D1BDE8104000F000BBBDE8104024
:1004800000F092BA012181400E480068014201D07B
:10049000012000E00020BDE8104040F23F420AA1E8
:1004A00001F000BA00200870086B1F2803D1BDE8D6
:1004B000104000F0CFB810BDFC04002019820108E4
:1004C000D72B0020BC0400202E2E5C7573625C6D5F
:1004D00073635C757362645F6D73632E6300000009
:1004E000104810B54168C16009B1012010BD0E4926
:1004F00001F11F048A687AB1097B090604D50B480B
:10050000007840F0800005E0A168006B814203D0D4
:100510000748007800F0C8FC0120207300F0ACFC14
:10052000002010BDFC040020B82B00201882010818
:10053000198201081048007900F08F02100605D5D5
:1005400002F00F004FF48031814001E00121914021
:100550000A48007840F0800090420CD1084A1268A6
:100560000A4208D00749084A0968914203D10D227E
:10057000044901F0C1B87047CC040020188201087A
:10058000BC040020D72B00205553425370B50A48B5
:10059000022400F11F05816831B1007B000608D4F8
:1005A0000648007800F080FC2C7300F065FC002009
:1005B00070BD012070BD0000B82B00201982010819
:1005C00010B50E480E4C8068216B884202D820631B
:1005D000032000E0042020700A480B49226B0078B9
:1005E00040F0800001F088F80448226B1F308168D9
:1005F000891A81600021017310BD0000B82B002012
:10060000FC040020188201083A230020064810B597
:10061000028807480549007800F0A6FC05490863F0
:10062000BDE81040FFF708BF1E8201083A230020F2
:1006300019820108FC04002010B50446400702D5C9
:100640000020FFF7E3FF200703D5BDE81040FFF7C8
:10065000C9BE10BD2DE9F047754E764C316B1F2990
:1006600002D20A46002005E01F220020724B1B5CCC
:100670002354401C9042F9D3714FDFF8C0A14FF0D2
:10068000010838781F2940F080007CD121686D4A2C
:10069000914278D1674D61681F356960A168A96092
:1006A000617B19B9A17B09B1102902D985F80C80A9
:1006B0008CE0E17B4FF002092A293ED022DC1A2986
:1006C00050D00FDC0429F1D006DCE9B30329EDD1C9
:1006D000BDE8F04700F056BB1229E7D1BDE8F0476E
:1006E00000F0BCB8232945D007DC1B2936D01E29D1
:1006F000DCD1BDE8F04700F0DFB825293ED028293D
:10070000D4D149E09E2943D00FDC5529CED004DC5A
:100710002F2956D03529C9D103E05A2926D091294D
:10072000C4D1BDE8F04700F0EFBBA1292AD0A3292E
:1007300060D0A82930D0AA29B8D100F073FA0028D7
:1007400006D0207B000600E004E04FD486F800804D
:10075000BDE8F087BDE8F04700F0DEBBBDE8F0473C
:1007600000F0B8BBBDE8F04700F034BABDE8F04790
:1007700000F004BABDE8F04700F0CEBABDE8F0479B
:1007800000F0A2BA00E038E0BDE8F047FFF7FEBD98
:10079000BDE8F04700F04ABB00F044FA0028D7D08B
:1007A000207B000605D586F80090BDE8F04700F0F4
:1007B00091B89AF8000000BF00F076FB85F80C9025
:1007C00004E0207C800705D400202873BDE8F047B2
:1007D00000F052BB00F026FA0028B9D0207B0006BA
:1007E00004D486F80080C6F82080B1E7387840F05D
:1007F0008000E1E700F058FB58E700F055FB38783F
:10080000114C00F00F014FF48030884021685546AC
:10081000084320609AF8000000F046FB297808FAA7
:1008200001F02168084320600620307090E7000046
:10083000FC040020B82B00203A2300201982010874
:100840001882010855534243C00400200249002089
:1008500008700120704700007822002010B5FFF7D3
:1008600095FE002820D0114800218022017042709E
:1008700002228270C2702023037141718171C171A3
:100880000B490A680821147814B14454521C00E042
:100890004354491CC9B22429F5D3064924200863CE
:1008A000BDE81040FFF78CBE10BD00003A230020C9
:1008B00094030020FC0400200548C07CC1070448C4
:1008C00000F11F0000D00121017300F0D5BA000033
:1008D000B82B00202DE9F0412E4C2F4F0026A169A6
:1008E000606ADFF8B88088420AD33878002540F083
:1008F000800000F0D9FA88F80C6000F0BDFA08E03A
:1009000028492748E56A097830F81100A84200D242
:100910000546FFF7E5FD00B90025A06A48B375B1AB
:10092000A16AE0692A460144387840F0800000F06E
:10093000E3FEA06A2844A062E06A401BE062D4E9BA
:100940000410A26A4143914203D1A662616A08443D
:100950006062D8F808104046491BC8F80810002DFE
:1009600005D0E16A002902D1032121700673BDE898
:10097000F081002DE3D0E16A20690144491EB1FBFA
:10098000F0F26069824200D90246E169606A06F0CD
:1009900007FAC5E7FC04002018820108D72B0020C5
:1009A0001A820108B30400202DE9F0412F4C0025E4
:1009B0002F4EA169606A884207D32E4825630078CC
:1009C00000F072FA357300F057FAFFF789FD20B195
:1009D000206B08B3A06A10B10FE0256320E0E16A44
:1009E00020690144491EB1FBF0F26069824200D9DE
:1009F0000246E169606A06F0D3F900201E4BA26A44
:100A0000216B0BE0D4F81CC017181CF8077013F802
:100A100000C0674501D0256202E0401C8842F1D346
:100A2000A16A206B0B18A362E16A0A1AE262D4E998
:100A300004714F439F4203D1A562636A1944616206
:100A4000B168091AB16000280DD012B120780528CC
:100A500009D1206A28B100203073BDE8F04100F0D0
:100A60000BBA0120F8E7BDE8F0810000FC0400208B
:100A7000D72B0020198201083A2300202DE9F041EC
:100A8000344C0025344FA169606A884207D333484B
:100A90002563007800F008FA3D7300F0EDF9FFF7E8
:100AA0001FFD00B92563A26A216B23695018984283
:100AB00006D9BDE8F041FE2229A1002000F0F2BED7
:100AC00000202D4EE36906E016F800C002EB000E90
:100AD000401C03F80EC08842F6D3216BA06A08447C
:100AE000A062E26A521AE26209B392B988B121693E
:100AF0000844401EB0FBF1F66069864200D9064604
:100B00003246E169606A06F065F9A562606A3044C0
:100B10000CE0D4E904125143814208D1E169606AD2
:100B200006F058F9A5626169606A08446062B968B4
:100B3000206B091AB960002809D0E06A10B120784A
:100B4000052804D13D73BDE8F04100F095B9BDE83A
:100B5000F0810000FC040020D72B0020198201083E
:100B60002E2E5C7573625C6D73635C757362645F7B
:100B70006D73632E630000003A23002010B5FFF769
:100B800005FD00281FD0FFF7ABFC00281BD00E4846
:100B900000210622017042700C4A8170137ADB0139
:100BA000C370017141718171C171094908201063DD
:100BB0008A68082A03D9A1F11F0290608860BDE805
:100BC0001040FFF7FDBC10BD3A230020FC040020BC
:100BD000D72B002010B5FFF7D9FC00281BD0FFF75A
:100BE0007FFC002817D00C480321002201700B491C
:100BF00042700B7ADB018370C270042008630849DD
:100C00008A68042A03D9A1F11F0290608860BDE8B8
:100C10001040FFF7D5BC10BD3A230020FC04002093
:100C2000D72B002070B5244C244DD4F81100217D21
:100C300000BA20F0FF0008430021C5E90901E17B6B
:100C40002F290AD004DC28290BD02A2917D104E047
:100C5000A8290DD0AA2912D106E0FFF741FC0028EF
:100C600027D0E08A40BA0AE0FFF73AFC002820D0FB
:100C7000D4F81500217E00BA20F0FF00084329694E
:100C80000D4E4843E862A16801251F3669B18142D3
:100C900010D0207B000604D50948007840F0800081
:100CA00001E00848007800F0FFF8357300F0E4F840
:100CB000002070BD012070BDB82B0020FC04002076
:100CC000188201081982010810B5FFF75FFC00289F
:100CD0001CD0FFF705FC002818D00D4A0D4891697B
:100CE000491E0B0E03700B0C43700B0A8370C1700E
:100CF00011690B0E03710B0C43710B0A8371C171E7
:100D000008201063BDE81040FFF75ABC10BD00007A
:100D1000FC0400203A23002010B5FFF737FC002820
:100D200029D0FFF7DDFB002825D013480021134A06
:100D30000170417081700821C17091690B0E0371BF
:100D40000B0C43710B0A8371C1710221017211698D
:100D50000B0C43720B0A8372C17209490C20106399
:100D60008A680C2A03D9A1F11F0290608860BDE84F
:100D70001040FFF725BC10BD3A230020FC040020E2
:100D8000D72B002010B5FFF701FC002835D01B48F9
:100D900070211B4A017000214170D468536833EA06
:100DA000040406D006248470282404734173D3609D
:100DB00008E0DBB1134B1B7BE3B1052383702023D9
:100DC00003734173C1700171417181710A23C37151
:100DD000017241728172C1728173C1730174417475
:100DE00012201063BDE81040FFF7EABB02238370B6
:100DF0003A23E5E781700173E3E710BD3A23002051
:100E0000FC040020D72B002004490020086004497E
:100E1000086004490720087001207047C0040020C2
:100E2000D72B0020FC040020FFF7EEBF10B5FFF722
:100E3000ADFB002817D00C48202200210270417021
:100E40000A4CC177032022632070094806490078C4
:100E500040F0800000F050FC0648226B8168891A3F
:100E600081600121017310BD3A230020FC040020A1
:100E700018820108D72B0020084910B506480860E1
:100E800007480D22007840F0800000F035FC05494D
:100E90000520087010BD000055534253D72B002089
:100EA00018820108FC04002010B5044600F0EAFB9B
:100EB000200605D504F00F004FF48031814001E099
:100EC0000121A140024802681143016010BD0000E9
:100ED000BC0400200A4810B5817C00F11F0429B130
:100EE00001202073BDE81040FFF7C6BFC07C054954
:100EF00000F00100486005F06BFF0020F1E7000002
:100F0000B82B0020FC040020024900200873FFF7E2
:100F1000B3BF0000D72B00200F4810B5816800F147
:100F20001F0469B1007B000604D50C48007840F02E
:100F3000800001E00A480078FFF7B6FF012004E0D6
:100F4000FFF7CEFA002805D000202073BDE810403E
:100F5000FFF792BF10BD0000B82B002018820108D7
:100F6000198201087047000070B5124B054600F069
:100F70000F005B68104C03EB001398689B8904EB2F
:100F80004000C3F30904944200D914460022631CB4
:100F900005E000BF30F8046B21F8026B521CB2EB85
:100FA000530FF7D34FF440512846FCF785FA2046FB
:100FB00070BD0000E403002000600040FFF7BABAF3
:100FC0002DE9FC414E48A0F11C050178A0F1080470
:100FD00011F01F0102D001296DD179E0494AC7788B
:100FE00049491378464A494E1C3A062FD27810D008
:100FF00006DC012F09D0022F14D0032F7ED141E04F
:10100000072F2AD00F2F79D156E0414820601220B7
:101010005CE0002B72D01AB13E4820600A2055E0F7
:101020003D48FAE70BB9012A68D0022322B10096A5
:1010300073700021827809E000914B70F9E7009805
:10104000037813B1438818440090491C8A42F6D1B2
:101050000098017879B3206037E063B3072322B1A9
:1010600000914B700021827809E000967370F9E7D7
:101070000098037813B1438818440090491C8A42B1
:10108000F6D1E5E7254900918178032901D00021B7
:1010900008E001F087FF0BE0009B1A780AB11A44C0
:1010A0000092491C82788A42F6D10098017811B1E9
:1010B000206000780AE021E01948007800281BD061
:1010C0001848009020600178C1B14088019005E087
:1010D00001A9684600F02AF800280DD0A1880198DF
:1010E000814208D9104980B2A0800978491E08427F
:1010F00001D1012028710120BDE8FC810020FBE71F
:10110000CC04002005820108B0210020E20200206A
:10111000B0820108C3820108C2820108FE82010870
:1011200006820108C48201080782010870B5194AC5
:10113000194B1B4DD678194A1C78212E1378154A65
:10114000127902D0222E22D116E0A24201D09A4278
:101150001DD1144A1378144A12780BB9012A16D0FB
:1011600042B1124A02601046114A128810442860A7
:10117000092009E00F4AF5E7A24201D09A4206D1C0
:101180000D4828600D4800880860012070BD0020CF
:1011900070BD0000CC040020E3020020E502002026
:1011A000C404002005820108B3040020E2020020EC
:1011B000E8020020B02100208C820108AE820108E4
:1011C00070B51C481B4D0078A5F1080510F01F04F0
:1011D0000AD01848A5F11401174B4A780079012C60
:1011E00006D0022C24D109E01248163828601DE0F0
:1011F000F2B1897888421BD2002015E000F08F04FC
:10120000200605D504F00F064FF48030B04001E011
:101210000120A0400AB922070AD18A68024207D0F9
:10122000C9680142E8D0012018802B60012070BD00
:10123000002070BDCC0400207822002070B5264A22
:101240000146A2F11C04107810F01F0310464088DC
:1012500004D0012B28D0022B26D110E0012823D165
:1012600029B100F047FAE08840F0020005E00020D4
:1012700000F040FAE08820F00200E08029E01279D6
:1012800002F08F06320605D506F00F024FF48035C6
:10129000954001E00125B54062782AB1320703D0BC
:1012A000A2682A4200D008B1002070BD29B13046A2
:1012B00000F0E8F9E06828430AE02069284208D1F4
:1012C0003046FEF779FA3046FFF778FEE068A8432B
:1012D000E060012070BD0000CC0400202DE9F84F33
:1012E0005D4F00200090387810F01F0F71D1B87852
:1012F0004FF000094FF0010B4FF4803AA7F11C06A4
:1013000000287CD0554801783046C07809B90128BA
:101310005FD008B1524C6EE0524C6CE0607802280D
:1013200005D0042846D0052847D0072861D1617927
:10133000B87881423CD1707020794C49B07000205F
:10134000494A098803E000BF02F80090401C884227
:10135000FAD301254FEA06080BFA05F0D8F8081071
:10136000084202D02846FEF7CAFAD8F808100AFA4E
:1013700005F0084203D045F08000FEF7C0FA6D1C6E
:10138000102DE9D34FF00110C8E902090120C8F877
:101390001090FEF765FAE0794006B8F8060002D52D
:1013A00040F0010001E020F00100A8F8060020E074
:1013B00060881FE0E07800901BE00098C8B9A07832
:1013C00000F08F05280606D505F00F010AFA01F096
:1013D00003E03BE013E00BFA05F0B168014320465F
:1013E000B160FEF7F5F92846FEF78CFA284600F0C2
:1013F0002FF920780444207800288FD122E04D4630
:1014000086F801900124D8464FEA0A09B16808FA23
:1014100004F0084202D02046FEF771FAB16809FADA
:1014200004F0084203D044F08000FEF768FA641C20
:10143000102CEBD34FF00110C6E9020500203561F6
:10144000FEF70EFAB8787178884202D00020BDE825
:10145000F88F0120FBE70000CC0400200582010882
:10146000E2020020B0210020D7030020E602002085
:101470002DE9FC5F454E00273D463078BB4600F025
:101480001F00B84601287ED1A6F11C01487800282B
:1014900076D03F48BA4602780846C0780AB9012893
:1014A00071D0894608B13B4C66E03B4C64E0607803
:1014B000022805D004280AD0052819D0072859D1B8
:1014C000617999F80100814254D0608853E0A7788F
:1014D0003079E5784FF00008B8424BD1B078A84297
:1014E00048D12E484FF0010A10F807B0C55541E029
:1014F0003079B8423ED1A07800F08F00019000060C
:1015000005D5019800F00F014FF4803001E00199FA
:10151000012088400090B078A84217D1D9F808106F
:10152000009A20461143C9F80810D9F80C109143CD
:10153000C9F80C10FEF74CF90198FEF7E3F9019891
:1015400000F086F8009948EA010813E05D4511D1E2
:10155000009918EA010F0DD1D9F80810009A9143AB
:10156000C9F80810D9F80C109143C9F80C1001986B
:10157000FEF7C5F9207804442078002897D150461A
:10158000BDE8FC9FFFE70020FAE70000CC04002044
:1015900005820108E2020020B0210020D7030020CC
:1015A0004FF0E0224FF480110020C2F88011BFF309
:1015B0004F8FBFF36F8F1F4908601F49096819B12A
:1015C0004FF400514A0001E000210A4611431B4A32
:1015D0001268002A02D000BF4FF4007241EA0201F3
:1015E00002D04FF4807201E04FF0000241EA0201A4
:1015F000134A41F41C411160134B12494FF0500241
:101600001860486802604FF0900282604FF0D0028C
:101610000A8048F2FF71C1600C494FF448500860DD
:10162000A3F104014FF0800008604FF0140000F0B7
:10163000EBB80000445C00403C820108388201089D
:10164000405C0040E4030020505C0040005C00402F
:10165000FBF71EBF10B5FEF72DF8BDE81040FFF7F1
:10166000E3BB10B5FEF714FDBDE81040FEF726B849
:10167000002903D1024940F0800008607047000053
:101680004C5C004041F21001FBF716BF08220249F2
:101690000020FFF769BC0000CC04002002484FF492
:1016A0000071C06801F0ACBF0400002000221146A8
:1016B000802000F021B80000024803490278002091
:1016C000FFF752BC07820108782200200448016815
:1016D00041F008010160016841F0040101607047B8
:1016E000405C00400248016821F008010160704739
:1016F000405C004070470000F0B5154F064600F012
:101700000F037868144600EB0310124A006802EBDE
:1017100040020020651C04E031F802CB42F804CB03
:10172000401CB0EB550FF7D378680B4900EB031062
:10173000446001EB8300D0F8000CC0F301100128D5
:1017400003D030213046FBF7B7FE2046F0BD000045
:10175000E403002000600040005000402DE9F04705
:10176000254D2868DFF8948020F01F0200F4FE4128
:10177000D8F810301A43C943C8F810202960DFF8A0
:101780008090000448F2800725D427E010F00F0075
:1017900009EB8006D6F8004C08D1210406D52105B6
:1017A00004D4D8F80410898989051BD064F31F403C
:1017B00003F0D6FB200406D544EA070040F68F71FB
:1017C0000840C6F8000C200605D53C4348F60F70CB
:1017D0000440C6F8004C28680104D7D4BDE8F0479F
:1017E000FFF75CBF2106E7D5C4F30E0161F31F408C
:1017F00003F0B6FBE0E70000445C0040E403002097
:101800000050004000207047002809DB00F01F0254
:10181000012191404009800000F1E020C0F8001152
:10182000704710B5002A06DA22F00042D21D22F0DD
:101830000703102203E0D21C22F003030C2213B191
:101840009C188C4201D9012010BD024401448360E0
:10185000C0E90021C91AD018884202D81060024697
:10186000F9E70020106010BD10B5044603F07EF9C2
:10187000002805D04FF6FF71DFF808C0206800DFB0
:1018800010BD00001D46010810B5044603F06EF9B6
:10189000002803D0DFF808C0206800DF10BD00007A
:1018A0006D4501082DE9F04116460F4600281BD171
:1018B000EFF3108000F0010472B600231A461946B7
:1018C000184600F0EBF9050003D13146384600F028
:1018D00041FA04B962B6002D06D100BFEFF30380D0
:1018E000C00601D105F056FDBDE8F081704700004B
:1018F00010B528220D490E48FAF770FE05F006FED5
:101900000C4805F0FDFD05F045FC0B490B4A0C4B5E
:1019100008604FF40071B0FBF1F011600949012239
:101920001A60086009490848086010BD487C010831
:10193000EC11002079220108300500200C05002060
:101940001005002014050020EC0F002018050020D1
:1019500000B591B0FDF7F0FC402801D9402000E02F
:1019600060B181B2684604F067FD010006D06846A8
:10197000FDF70AFD10B1012001F084FC04F008FE1F
:101980000146402801D9402100E059B16846FDF7E1
:10199000DFFC38B181B2684604F0E8FD10B10120E7
:1019A00001F070FC01F086FC11B000BD04484178E4
:1019B0008078814201D001207047002070470000EC
:1019C0000001002030B50546EFF3108000F001045F
:1019D00072B6284600F007F8A968081A401E002CC5
:1019E00000D162B630BDEFF3108101F0010172B693
:1019F000D0E90023934201D3981A02E0806818448A
:101A0000801A002900D162B67047EFF3108313F0FB
:101A1000010F72B6C0E902214FF000010160416080
:101A200000D162B67047000070B50446EFF3108035
:101A300000F0010572B6D4E90001884201D001200E
:101A400000E0002042220EA1FFF72CFFE168206891
:101A50000E5C401C2060A16888420CD302D14FF07C
:101A6000010001E04FF000004FF0470204A1FFF732
:101A700019FF0020206005B962B6304670BD000035
:101A80002E2E5C6461706C696E6B5C636972635F5F
:101A90006275662E6300000070B50446EFF3108097
:101AA00000F0010572B66268E06881546068401C0D
:101AB0006060A16888420CD302D14FF0010001E0C0
:101AC0004FF000004FF0300209A1FFF7EBFE0020BD
